{
  "contractName": "Converge",
  "abi": [
    {
      "inputs": [],
      "stateMutability": "nonpayable",
      "type": "constructor"
    },
    {
      "anonymous": false,
      "inputs": [
        {
          "indexed": false,
          "internalType": "address",
          "name": "actor",
          "type": "address"
        },
        {
          "indexed": false,
          "internalType": "string",
          "name": "name",
          "type": "string"
        }
      ],
      "name": "LogDeleteGroup",
      "type": "event"
    },
    {
      "anonymous": false,
      "inputs": [
        {
          "indexed": false,
          "internalType": "address",
          "name": "actor",
          "type": "address"
        },
        {
          "indexed": false,
          "internalType": "string",
          "name": "group",
          "type": "string"
        },
        {
          "indexed": false,
          "internalType": "uint256",
          "name": "id",
          "type": "uint256"
        }
      ],
      "name": "LogDeleteMeeting",
      "type": "event"
    },
    {
      "anonymous": false,
      "inputs": [
        {
          "indexed": false,
          "internalType": "string",
          "name": "message",
          "type": "string"
        },
        {
          "indexed": false,
          "internalType": "uint256",
          "name": "data",
          "type": "uint256"
        }
      ],
      "name": "LogGotHere",
      "type": "event"
    },
    {
      "anonymous": false,
      "inputs": [
        {
          "indexed": false,
          "internalType": "address",
          "name": "actor",
          "type": "address"
        },
        {
          "indexed": false,
          "internalType": "string",
          "name": "name",
          "type": "string"
        }
      ],
      "name": "LogNewGroup",
      "type": "event"
    },
    {
      "anonymous": false,
      "inputs": [
        {
          "indexed": false,
          "internalType": "address",
          "name": "actor",
          "type": "address"
        },
        {
          "indexed": false,
          "internalType": "string",
          "name": "group",
          "type": "string"
        },
        {
          "indexed": false,
          "internalType": "uint256",
          "name": "id",
          "type": "uint256"
        }
      ],
      "name": "LogNewMeeting",
      "type": "event"
    },
    {
      "anonymous": false,
      "inputs": [
        {
          "indexed": false,
          "internalType": "address",
          "name": "actor",
          "type": "address"
        },
        {
          "indexed": false,
          "internalType": "string",
          "name": "name",
          "type": "string"
        }
      ],
      "name": "LogUpdateGroup",
      "type": "event"
    },
    {
      "anonymous": false,
      "inputs": [
        {
          "indexed": false,
          "internalType": "address",
          "name": "actor",
          "type": "address"
        },
        {
          "indexed": false,
          "internalType": "string",
          "name": "group",
          "type": "string"
        },
        {
          "indexed": false,
          "internalType": "uint256",
          "name": "id",
          "type": "uint256"
        }
      ],
      "name": "LogUpdateMeeting",
      "type": "event"
    },
    {
      "inputs": [],
      "name": "meetingCount",
      "outputs": [
        {
          "internalType": "uint256",
          "name": "",
          "type": "uint256"
        }
      ],
      "stateMutability": "view",
      "type": "function",
      "constant": true
    },
    {
      "inputs": [
        {
          "internalType": "string",
          "name": "_groupName",
          "type": "string"
        }
      ],
      "name": "getGroupMeetingCount",
      "outputs": [
        {
          "internalType": "uint256",
          "name": "",
          "type": "uint256"
        }
      ],
      "stateMutability": "view",
      "type": "function",
      "constant": true
    },
    {
      "inputs": [
        {
          "internalType": "string",
          "name": "_groupName",
          "type": "string"
        },
        {
          "internalType": "uint256",
          "name": "index",
          "type": "uint256"
        }
      ],
      "name": "getGroupMeetingAtIndex",
      "outputs": [
        {
          "internalType": "uint256",
          "name": "",
          "type": "uint256"
        }
      ],
      "stateMutability": "view",
      "type": "function",
      "constant": true
    },
    {
      "inputs": [
        {
          "internalType": "string",
          "name": "_groupName",
          "type": "string"
        },
        {
          "internalType": "string",
          "name": "_description",
          "type": "string"
        },
        {
          "internalType": "string",
          "name": "_location",
          "type": "string"
        }
      ],
      "name": "addGroup",
      "outputs": [],
      "stateMutability": "nonpayable",
      "type": "function"
    },
    {
      "inputs": [
        {
          "internalType": "string",
          "name": "_groupName",
          "type": "string"
        }
      ],
      "name": "getGroup",
      "outputs": [
        {
          "internalType": "string",
          "name": "",
          "type": "string"
        },
        {
          "internalType": "string",
          "name": "",
          "type": "string"
        },
        {
          "internalType": "string",
          "name": "",
          "type": "string"
        }
      ],
      "stateMutability": "view",
      "type": "function",
      "constant": true
    },
    {
      "inputs": [
        {
          "internalType": "string",
          "name": "_groupName",
          "type": "string"
        },
        {
          "internalType": "string",
          "name": "_description",
          "type": "string"
        },
        {
          "internalType": "string",
          "name": "_location",
          "type": "string"
        }
      ],
      "name": "updateGroup",
      "outputs": [],
      "stateMutability": "nonpayable",
      "type": "function"
    },
    {
      "inputs": [
        {
          "internalType": "string",
          "name": "_name",
          "type": "string"
        }
      ],
      "name": "deleteGroup",
      "outputs": [],
      "stateMutability": "nonpayable",
      "type": "function"
    },
    {
      "inputs": [
        {
          "internalType": "string",
          "name": "_groupName",
          "type": "string"
        },
        {
          "internalType": "string",
          "name": "_title",
          "type": "string"
        },
        {
          "internalType": "string",
          "name": "_description",
          "type": "string"
        },
        {
          "internalType": "string",
          "name": "_location",
          "type": "string"
        },
        {
          "internalType": "uint256",
          "name": "_date",
          "type": "uint256"
        }
      ],
      "name": "addMeeting",
      "outputs": [],
      "stateMutability": "nonpayable",
      "type": "function"
    },
    {
      "inputs": [
        {
          "internalType": "uint256",
          "name": "_meetingId",
          "type": "uint256"
        }
      ],
      "name": "getMeeting",
      "outputs": [
        {
          "internalType": "uint256",
          "name": "",
          "type": "uint256"
        },
        {
          "internalType": "string",
          "name": "",
          "type": "string"
        },
        {
          "internalType": "string",
          "name": "",
          "type": "string"
        },
        {
          "internalType": "string",
          "name": "",
          "type": "string"
        },
        {
          "internalType": "uint256",
          "name": "",
          "type": "uint256"
        }
      ],
      "stateMutability": "view",
      "type": "function",
      "constant": true
    },
    {
      "inputs": [
        {
          "internalType": "uint256",
          "name": "_meetingId",
          "type": "uint256"
        },
        {
          "internalType": "string",
          "name": "_title",
          "type": "string"
        },
        {
          "internalType": "string",
          "name": "_description",
          "type": "string"
        },
        {
          "internalType": "string",
          "name": "_location",
          "type": "string"
        },
        {
          "internalType": "uint256",
          "name": "_date",
          "type": "uint256"
        }
      ],
      "name": "updateMeeting",
      "outputs": [],
      "stateMutability": "nonpayable",
      "type": "function"
    },
    {
      "inputs": [
        {
          "internalType": "uint256",
          "name": "_meetingId",
          "type": "uint256"
        }
      ],
      "name": "deleteMeeting",
      "outputs": [],
      "stateMutability": "nonpayable",
      "type": "function"
    }
  ],
  "bytecode": "0x608060405234801561001057600080fd5b50336000806101000a81548173ffffffffffffffffffffffffffffffffffffffff021916908373ffffffffffffffffffffffffffffffffffffffff16021790555061249c806100606000396000f3fe608060405234801561001057600080fd5b50600436106100a95760003560e01c806390983dc61161007157806390983dc614610166578063969aa28214610182578063abef281e146101a0578063b17ea4e0146101d2578063dcd717ed146101ee578063f8aca1ca1461021e576100a9565b80631d8a7ef8146100ae5780632307271b146100de5780632d703f88146100fa5780632e8b92a91461012e5780634e70f4bd1461014a575b600080fd5b6100c860048036038101906100c39190611acf565b61023a565b6040516100d59190612265565b60405180910390f35b6100f860048036038101906100f39190611cd2565b6102d6565b005b610114600480360381019061010f9190611cd2565b610751565b604051610125959493929190612280565b60405180910390f35b61014860048036038101906101439190611acf565b610a14565b005b610164600480360381019061015f9190611b10565b610d00565b005b610180600480360381019061017b9190611b10565b610f10565b005b61018a6110b6565b6040516101979190612265565b60405180910390f35b6101ba60048036038101906101b59190611acf565b6110bc565b6040516101c993929190612179565b60405180910390f35b6101ec60048036038101906101e79190611ba7565b611373565b005b61020860048036038101906102039190611c7e565b61166d565b6040516102159190612265565b60405180910390f35b61023860048036038101906102339190611cfb565b61171c565b005b600060028260405161024c919061209f565b908152602001604051809103902060060160009054906101000a900460ff166102aa576040517f08c379a00000000000000000000000000000000000000000000000000000000081526004016102a190612245565b60405180910390fd5b6002826040516102ba919061209f565b9081526020016040518091039020600301805490509050919050565b60008054906101000a900473ffffffffffffffffffffffffffffffffffffffff1673ffffffffffffffffffffffffffffffffffffffff163373ffffffffffffffffffffffffffffffffffffffff1614610364576040517f08c379a000000000000000000000000000000000000000000000000000000000815260040161035b906121e5565b60405180910390fd5b6005600082815260200190815260200160002060070160009054906101000a900460ff166103c7576040517f08c379a00000000000000000000000000000000000000000000000000000000081526004016103be90612225565b60405180910390fd5b6060600560008381526020019081526020016000206005018054600181600116156101000203166002900480601f0160208091040260200160405190810160405280929190818152602001828054600181600116156101000203166002900480156104735780601f1061044857610100808354040283529160200191610473565b820191906000526020600020905b81548152906001019060200180831161045657829003601f168201915b505050505090507f573e6b9420c944bbc9440143c9b533171798a701d15e61cf1757233f0395d6a43382846040516104ad939291906120fd565b60405180910390a160006005600084815260200190815260200160002060060154905060006004600160048054905003815481106104e757fe5b90600052602060002001549050806004838154811061050257fe5b9060005260206000200181905550816005600083815260200190815260200160002060060181905550600480548061053657fe5b600190038181906000526020600020016000905590556005600085815260200190815260200160002060008082016000905560018201600061057891906118bd565b60028201600061058891906118bd565b60038201600061059891906118bd565b60048201600090556005820160006105b091906118bd565b60068201600090556007820160006101000a81549060ff021916905550506002836040516105de919061209f565b90815260200160405180910390206004016000858152602001908152602001600020549150600283604051610613919061209f565b90815260200160405180910390206003016001600285604051610636919061209f565b908152602001604051809103902060030180549050038154811061065657fe5b9060005260206000200154905080600284604051610674919061209f565b9081526020016040518091039020600301838154811061069057fe5b9060005260206000200181905550816002846040516106af919061209f565b90815260200160405180910390206004016000838152602001908152602001600020819055506002836040516106e5919061209f565b90815260200160405180910390206003018054806106ff57fe5b60019003818190600052602060002001600090559055600283604051610725919061209f565b908152602001604051809103902060040160008581526020019081526020016000206000905550505050565b6000606080606060006005600087815260200190815260200160002060070160009054906101000a900460ff166107bd576040517f08c379a00000000000000000000000000000000000000000000000000000000081526004016107b490612225565b60405180910390fd5b60056000878152602001908152602001600020600001546005600088815260200190815260200160002060010160056000898152602001908152602001600020600201600560008a8152602001908152602001600020600301600560008b815260200190815260200160002060040154838054600181600116156101000203166002900480601f0160208091040260200160405190810160405280929190818152602001828054600181600116156101000203166002900480156108c25780601f10610897576101008083540402835291602001916108c2565b820191906000526020600020905b8154815290600101906020018083116108a557829003601f168201915b50505050509350828054600181600116156101000203166002900480601f01602080910402602001604051908101604052809291908181526020018280546001816001161561010002031660029004801561095e5780601f106109335761010080835404028352916020019161095e565b820191906000526020600020905b81548152906001019060200180831161094157829003601f168201915b50505050509250818054600181600116156101000203166002900480601f0160208091040260200160405190810160405280929190818152602001828054600181600116156101000203166002900480156109fa5780601f106109cf576101008083540402835291602001916109fa565b820191906000526020600020905b8154815290600101906020018083116109dd57829003601f168201915b505050505091509450945094509450945091939590929450565b60008054906101000a900473ffffffffffffffffffffffffffffffffffffffff1673ffffffffffffffffffffffffffffffffffffffff163373ffffffffffffffffffffffffffffffffffffffff1614610aa2576040517f08c379a0000000000000000000000000000000000000000000000000000000008152600401610a99906121e5565b60405180910390fd5b600281604051610ab2919061209f565b908152602001604051809103902060060160009054906101000a900460ff16610b10576040517f08c379a0000000000000000000000000000000000000000000000000000000008152600401610b0790612245565b60405180910390fd5b6000600282604051610b22919061209f565b90815260200160405180910390206003018054905014610b77576040517f08c379a0000000000000000000000000000000000000000000000000000000008152600401610b6e906121c5565b60405180910390fd5b7f84f426df888a62516b65ba8e19c36ae6ab0098a46b1cc5589639cb9cd3b069a93382604051610ba89291906120cd565b60405180910390a16000600282604051610bc2919061209f565b9081526020016040518091039020600501549050600060018080805490500381548110610beb57fe5b9060005260206000200190508060018381548110610c0557fe5b906000526020600020019080546001816001161561010002031660029004610c2e929190611905565b5081600282604051610c4091906120b6565b9081526020016040518091039020600501819055506001805480610c6057fe5b600190038181906000526020600020016000610c7c91906118bd565b9055600283604051610c8e919061209f565b908152602001604051809103902060008082016000610cad91906118bd565b600182016000610cbd91906118bd565b600282016000610ccd91906118bd565b600382016000610cdd919061199a565b60058201600090556006820160006101000a81549060ff02191690555050505050565b60008054906101000a900473ffffffffffffffffffffffffffffffffffffffff1673ffffffffffffffffffffffffffffffffffffffff163373ffffffffffffffffffffffffffffffffffffffff1614610d8e576040517f08c379a0000000000000000000000000000000000000000000000000000000008152600401610d85906121e5565b60405180910390fd5b600283604051610d9e919061209f565b908152602001604051809103902060060160009054906101000a900460ff1615610dfd576040517f08c379a0000000000000000000000000000000000000000000000000000000008152600401610df490612205565b60405180910390fd5b7f71820db7986a2d7203365298ce5c3d52ee7ab194e3934af38620a6a3c204f34d3384604051610e2e9291906120cd565b60405180910390a16000600284604051610e48919061209f565b9081526020016040518091039020905083816000019080519060200190610e709291906119bb565b5082816001019080519060200190610e899291906119bb565b5081816002019080519060200190610ea29291906119bb565b50600180549050816005018190555060018160060160006101000a81548160ff021916908315150217905550600184908060018154018082558091505060019003906000526020600020016000909190919091509080519060200190610f099291906119bb565b5050505050565b60008054906101000a900473ffffffffffffffffffffffffffffffffffffffff1673ffffffffffffffffffffffffffffffffffffffff163373ffffffffffffffffffffffffffffffffffffffff1614610f9e576040517f08c379a0000000000000000000000000000000000000000000000000000000008152600401610f95906121e5565b60405180910390fd5b600283604051610fae919061209f565b908152602001604051809103902060060160009054906101000a900460ff1661100c576040517f08c379a000000000000000000000000000000000000000000000000000000000815260040161100390612245565b60405180910390fd5b7f543c720102401668e832abee9dcbe121b9a4c658ffd3082557759c64963ba690338460405161103d9291906120cd565b60405180910390a181600284604051611056919061209f565b9081526020016040518091039020600101908051906020019061107a9291906119bb565b508060028460405161108c919061209f565b908152602001604051809103902060020190805190602001906110b09291906119bb565b50505050565b60035481565b60608060606002846040516110d1919061209f565b908152602001604051809103902060060160009054906101000a900460ff1661112f576040517f08c379a000000000000000000000000000000000000000000000000000000000815260040161112690612245565b60405180910390fd5b60028460405161113f919061209f565b9081526020016040518091039020600001600285604051611160919061209f565b9081526020016040518091039020600101600286604051611181919061209f565b9081526020016040518091039020600201828054600181600116156101000203166002900480601f0160208091040260200160405190810160405280929190818152602001828054600181600116156101000203166002900480156112275780601f106111fc57610100808354040283529160200191611227565b820191906000526020600020905b81548152906001019060200180831161120a57829003601f168201915b50505050509250818054600181600116156101000203166002900480601f0160208091040260200160405190810160405280929190818152602001828054600181600116156101000203166002900480156112c35780601f10611298576101008083540402835291602001916112c3565b820191906000526020600020905b8154815290600101906020018083116112a657829003601f168201915b50505050509150808054600181600116156101000203166002900480601f01602080910402602001604051908101604052809291908181526020018280546001816001161561010002031660029004801561135f5780601f106113345761010080835404028352916020019161135f565b820191906000526020600020905b81548152906001019060200180831161134257829003601f168201915b505050505090509250925092509193909250565b60008054906101000a900473ffffffffffffffffffffffffffffffffffffffff1673ffffffffffffffffffffffffffffffffffffffff163373ffffffffffffffffffffffffffffffffffffffff1614611401576040517f08c379a00000000000000000000000000000000000000000000000000000000081526004016113f8906121e5565b60405180910390fd5b600285604051611411919061209f565b908152602001604051809103902060060160009054906101000a900460ff1661146f576040517f08c379a000000000000000000000000000000000000000000000000000000000815260040161146690612245565b60405180910390fd5b6000600286604051611481919061209f565b90815260200160405180910390209050600060035490506003600081548092919060010191905055507f61b0be62bc613163bc66ebf8f63755d77ff9a760c0a6b961bb58240d0a6b37d13388836040516114dd939291906120fd565b60405180910390a1604051806101000160405280828152602001878152602001868152602001858152602001848152602001888152602001600480549050815260200160011515815250600560008381526020019081526020016000206000820151816000015560208201518160010190805190602001906115609291906119bb565b50604082015181600201908051906020019061157d9291906119bb565b50606082015181600301908051906020019061159a9291906119bb565b506080820151816004015560a08201518160050190805190602001906115c19291906119bb565b5060c0820151816006015560e08201518160070160006101000a81548160ff02191690831515021790555090505060048190806001815401808255809150506001900390600052602060002001600090919091909150558160030180549050826004016000838152602001908152602001600020819055508160030181908060018154018082558091505060019003906000526020600020016000909190919091505550505050505050565b600060028360405161167f919061209f565b908152602001604051809103902060060160009054906101000a900460ff166116dd576040517f08c379a00000000000000000000000000000000000000000000000000000000081526004016116d490612245565b60405180910390fd5b6002836040516116ed919061209f565b9081526020016040518091039020600301828154811061170957fe5b9060005260206000200154905092915050565b60008054906101000a900473ffffffffffffffffffffffffffffffffffffffff1673ffffffffffffffffffffffffffffffffffffffff163373ffffffffffffffffffffffffffffffffffffffff16146117aa576040517f08c379a00000000000000000000000000000000000000000000000000000000081526004016117a1906121e5565b60405180910390fd5b6005600086815260200190815260200160002060070160009054906101000a900460ff1661180d576040517f08c379a000000000000000000000000000000000000000000000000000000000815260040161180490612225565b60405180910390fd5b60006005600087815260200190815260200160002090507e7f17908bb8820d691da4c75c978ee15bb279bba2ffd2900069a100589c32c93382600501886040516118599392919061213b565b60405180910390a1848160010190805190602001906118799291906119bb565b50838160020190805190602001906118929291906119bb565b50828160030190805190602001906118ab9291906119bb565b50818160040181905550505050505050565b50805460018160011615610100020316600290046000825580601f106118e35750611902565b601f0160209004906000526020600020908101906119019190611a49565b5b50565b828054600181600116156101000203166002900490600052602060002090601f01602090048101928261193b5760008555611989565b82601f1061194c5780548555611989565b8280016001018555821561198957600052602060002091601f016020900482015b8281111561198857825482559160010191906001019061196d565b5b5090506119969190611a49565b5090565b50805460008255906000526020600020908101906119b89190611a49565b50565b828054600181600116156101000203166002900490600052602060002090601f0160209004810192826119f15760008555611a38565b82601f10611a0a57805160ff1916838001178555611a38565b82800160010185558215611a38579182015b82811115611a37578251825591602001919060010190611a1c565b5b509050611a459190611a49565b5090565b5b80821115611a62576000816000905550600101611a4a565b5090565b600082601f830112611a7757600080fd5b8135611a8a611a8582612319565b6122e8565b91508082526020830160208301858383011115611aa657600080fd5b611ab18382846123fa565b50505092915050565b600081359050611ac98161244f565b92915050565b600060208284031215611ae157600080fd5b600082013567ffffffffffffffff811115611afb57600080fd5b611b0784828501611a66565b91505092915050565b600080600060608486031215611b2557600080fd5b600084013567ffffffffffffffff811115611b3f57600080fd5b611b4b86828701611a66565b935050602084013567ffffffffffffffff811115611b6857600080fd5b611b7486828701611a66565b925050604084013567ffffffffffffffff811115611b9157600080fd5b611b9d86828701611a66565b9150509250925092565b600080600080600060a08688031215611bbf57600080fd5b600086013567ffffffffffffffff811115611bd957600080fd5b611be588828901611a66565b955050602086013567ffffffffffffffff811115611c0257600080fd5b611c0e88828901611a66565b945050604086013567ffffffffffffffff811115611c2b57600080fd5b611c3788828901611a66565b935050606086013567ffffffffffffffff811115611c5457600080fd5b611c6088828901611a66565b9250506080611c7188828901611aba565b9150509295509295909350565b60008060408385031215611c9157600080fd5b600083013567ffffffffffffffff811115611cab57600080fd5b611cb785828601611a66565b9250506020611cc885828601611aba565b9150509250929050565b600060208284031215611ce457600080fd5b6000611cf284828501611aba565b91505092915050565b600080600080600060a08688031215611d1357600080fd5b6000611d2188828901611aba565b955050602086013567ffffffffffffffff811115611d3e57600080fd5b611d4a88828901611a66565b945050604086013567ffffffffffffffff811115611d6757600080fd5b611d7388828901611a66565b935050606086013567ffffffffffffffff811115611d9057600080fd5b611d9c88828901611a66565b9250506080611dad88828901611aba565b9150509295509295909350565b611dc3816123c4565b82525050565b6000611dd482612373565b611dde818561237e565b9350611dee818560208601612409565b611df78161243e565b840191505092915050565b6000611e0d82612373565b611e17818561238f565b9350611e27818560208601612409565b80840191505092915050565b600081546001811660008114611e505760018114611e7557611eb9565b607f6002830416611e61818761238f565b955060ff1983168652808601935050611eb9565b60028204611e83818761238f565b9550611e8e8561235e565b60005b82811015611eb057815481890152600182019150602081019050611e91565b82880195505050505b505092915050565b600081546001811660008114611ede5760018114611f0457611f48565b607f6002830416611eef818761237e565b955060ff198316865260208601935050611f48565b60028204611f12818761237e565b9550611f1d85612349565b60005b82811015611f3f57815481890152600182019150602081019050611f20565b80880195505050505b505092915050565b6000611f5d60188361237e565b91507f43616e206e6f7420636f6e7461696e206d656574696e677300000000000000006000830152602082019050919050565b6000611f9d600c8361237e565b91507f556e617574686f72697a656400000000000000000000000000000000000000006000830152602082019050919050565b6000611fdd600c8361237e565b91507f47726f75702065786973747300000000000000000000000000000000000000006000830152602082019050919050565b600061201d600f8361237e565b91507f496e76616c6964206d656574696e6700000000000000000000000000000000006000830152602082019050919050565b600061205d600d8361237e565b91507f496e76616c69642067726f7570000000000000000000000000000000000000006000830152602082019050919050565b612099816123ba565b82525050565b60006120ab8284611e02565b915081905092915050565b60006120c28284611e33565b915081905092915050565b60006040820190506120e26000830185611dba565b81810360208301526120f48184611dc9565b90509392505050565b60006060820190506121126000830186611dba565b81810360208301526121248185611dc9565b90506121336040830184612090565b949350505050565b60006060820190506121506000830186611dba565b81810360208301526121628185611ec1565b90506121716040830184612090565b949350505050565b600060608201905081810360008301526121938186611dc9565b905081810360208301526121a78185611dc9565b905081810360408301526121bb8184611dc9565b9050949350505050565b600060208201905081810360008301526121de81611f50565b9050919050565b600060208201905081810360008301526121fe81611f90565b9050919050565b6000602082019050818103600083015261221e81611fd0565b9050919050565b6000602082019050818103600083015261223e81612010565b9050919050565b6000602082019050818103600083015261225e81612050565b9050919050565b600060208201905061227a6000830184612090565b92915050565b600060a0820190506122956000830188612090565b81810360208301526122a78187611dc9565b905081810360408301526122bb8186611dc9565b905081810360608301526122cf8185611dc9565b90506122de6080830184612090565b9695505050505050565b6000604051905081810181811067ffffffffffffffff8211171561230f5761230e61243c565b5b8060405250919050565b600067ffffffffffffffff8211156123345761233361243c565b5b601f19601f8301169050602081019050919050565b60008190508160005260206000209050919050565b60008190508160005260206000209050919050565b600081519050919050565b600082825260208201905092915050565b600081905092915050565b600073ffffffffffffffffffffffffffffffffffffffff82169050919050565b6000819050919050565b60006123cf826123d6565b9050919050565b60006123e1826123e8565b9050919050565b60006123f38261239a565b9050919050565b82818337600083830152505050565b60005b8381101561242757808201518184015260208101905061240c565b83811115612436576000848401525b50505050565bfe5b6000601f19601f8301169050919050565b612458816123ba565b811461246357600080fd5b5056fea2646970667358221220c0d27ccd4ce85e16854cc14b93e255527959ce4ab5f8051b55a21b9dd66d5d6064736f6c63430007050033",
  "immutableReferences": {},
  "source": "// SPDX-License-Identifier: MIT\npragma solidity 0.7.5;\npragma experimental ABIEncoderV2;\n\ncontract Converge {\n\n    address private owner;\n\n    string[] private groupList;\n    mapping (string => Group) private groups;\n    uint public meetingCount;\n    uint[] private meetingList;\n    mapping (uint => Meeting) private meetings;\n\n    struct Meeting {\n        uint id;\n        string title;\n        string description;\n        string location;\n        uint date;\n        string groupKey;\n        uint meetingListPointer;\n        bool isValid;\n    }\n\n    struct Group {\n        string name;\n        string description;\n        string location;\n        uint[] meetingKeys;\n        mapping (uint => uint) meetingKeyPointers;\n        uint groupListPointer;\n        bool isValid;\n    }\n\n    event LogGotHere(string message, uint data);\n\n    event LogNewGroup(address actor, string name);\n    event LogUpdateGroup(address actor, string name);\n    event LogDeleteGroup(address actor, string name);\n    event LogNewMeeting(address actor, string group, uint id);\n    event LogUpdateMeeting(address actor, string group, uint id);\n    event LogDeleteMeeting(address actor, string group, uint id);\n\n    modifier onlyOwner {\n        require(msg.sender == owner, \"Unauthorized\");\n        _;\n    }\n\n    constructor() {\n        owner = msg.sender;\n    }\n\n    function getGroupMeetingCount(string memory _groupName) public view returns(uint) {\n        require(groups[_groupName].isValid, \"Invalid group\");\n        return groups[_groupName].meetingKeys.length;\n    }\n\n    function getGroupMeetingAtIndex(string memory _groupName, uint index) \n        public \n        view \n        returns(uint) \n    {\n        require(groups[_groupName].isValid, \"Invalid group\");\n        return groups[_groupName].meetingKeys[index];\n    }\n\n    function addGroup(string memory _groupName, string memory _description, string memory _location) \n        public \n        onlyOwner \n    {\n        require(!groups[_groupName].isValid, \"Group exists\");\n        emit LogNewGroup(msg.sender, _groupName);\n        Group storage group = groups[_groupName];\n        group.name = _groupName;\n        group.description = _description;\n        group.location = _location;\n        group.groupListPointer = groupList.length;\n        group.isValid = true;\n        groupList.push(_groupName);\n    }\n\n    function getGroup(string memory _groupName) \n        external \n        view \n        returns(string memory, string memory, string memory) \n    {\n        require(groups[_groupName].isValid, \"Invalid group\");\n        return (\n            groups[_groupName].name, \n            groups[_groupName].description, \n            groups[_groupName].location\n        );\n    }\n\n    function updateGroup(\n        string memory _groupName, \n        string memory _description, \n        string memory _location\n    ) \n        public \n        onlyOwner \n    {\n        require(groups[_groupName].isValid, \"Invalid group\");\n        emit LogUpdateGroup(msg.sender, _groupName);\n\n        groups[_groupName].description = _description;\n        groups[_groupName].location = _location;\n    }\n\n    function deleteGroup(string memory _name) public onlyOwner {\n        require(groups[_name].isValid, \"Invalid group\");\n        require(groups[_name].meetingKeys.length == 0, \"Can not contain meetings\");\n        emit LogDeleteGroup(msg.sender, _name);\n\n        uint indexToDelete = groups[_name].groupListPointer;\n        string storage keyToMove = groupList[groupList.length - 1];\n        groupList[indexToDelete] = keyToMove;\n        groups[keyToMove].groupListPointer = indexToDelete;\n        groupList.pop();\n        delete groups[_name];\n    }\n\n    // function getGroups() external view returns (Group[] memory){\n    //     Group[] memory groupArray = new Group[](groupList.length);\n    //     for (uint i = 0; i < groupList.length; i++) {\n    //         groupArray[i] = groups[groupList[i]];\n    //     }\n    //     return groupArray;\n    // }\n\n    function addMeeting(\n        string memory _groupName, \n        string memory _title, \n        string memory _description, \n        string memory _location, \n        uint _date\n    ) \n        public \n        onlyOwner \n    {\n        require(groups[_groupName].isValid, \"Invalid group\");\n        Group storage group = groups[_groupName];\n        uint meetingId = meetingCount;\n        meetingCount++;\n        emit LogNewMeeting(msg.sender, _groupName, meetingId);\n\n        meetings[meetingId] = Meeting({\n            id: meetingId, \n            title: _title, \n            description: _description, \n            location: _location, \n            date: _date, \n            groupKey: _groupName, \n            meetingListPointer: meetingList.length, \n            isValid: true\n        });\n        meetingList.push(meetingId);\n\n        group.meetingKeyPointers[meetingId] = group.meetingKeys.length;\n        group.meetingKeys.push(meetingId);\n    }\n\n    function getMeeting(uint _meetingId) \n        external \n        view \n        returns(uint, string memory, string memory, string memory, uint) \n    {\n        require(meetings[_meetingId].isValid, \"Invalid meeting\");\n        return (meetings[_meetingId].id, meetings[_meetingId].title, meetings[_meetingId].description, meetings[_meetingId].location, meetings[_meetingId].date);\n    }\n\n    function updateMeeting(\n        uint _meetingId, \n        string memory _title, \n        string memory _description, \n        string memory _location, \n        uint _date\n    ) \n        public \n        onlyOwner \n    {\n        require(meetings[_meetingId].isValid, \"Invalid meeting\");\n        Meeting storage meeting = meetings[_meetingId];\n        emit LogUpdateMeeting(msg.sender, meeting.groupKey, _meetingId);\n\n        meeting.title = _title;\n        meeting.description = _description;\n        meeting.location = _location;\n        meeting.date = _date;\n    }\n\n    function deleteMeeting(uint _meetingId) public onlyOwner {\n        require(meetings[_meetingId].isValid, \"Invalid meeting\");\n        string memory groupId = meetings[_meetingId].groupKey;\n        emit LogDeleteMeeting(msg.sender, groupId, _meetingId);\n\n        uint indexToDelete = meetings[_meetingId].meetingListPointer;\n        uint keyToMove = meetingList[meetingList.length - 1];\n        meetingList[indexToDelete] = keyToMove;\n        meetings[keyToMove].meetingListPointer = indexToDelete;\n        meetingList.pop();\n        delete meetings[_meetingId];\n\n        indexToDelete = groups[groupId].meetingKeyPointers[_meetingId];\n        keyToMove = groups[groupId].meetingKeys[groups[groupId].meetingKeys.length - 1];\n        groups[groupId].meetingKeys[indexToDelete] = keyToMove;\n        groups[groupId].meetingKeyPointers[keyToMove] = indexToDelete;\n        groups[groupId].meetingKeys.pop();\n        delete groups[groupId].meetingKeyPointers[_meetingId];\n    }\n\n//TODO\n    // function getMeetings() external view returns (Group[] memory){\n    //     Group[] memory groupArray = new Group[](groupList.length);\n    //     for (uint i = 0; i < groupList.length; i++) {\n    //         groupArray[i] = groups[groupList[i]];\n    //     }\n    //     return groupArray;\n    // }\n}",
  "sourcePath": "/home/glisch/Development/Converge/contracts/Converge.sol",
  "compiler": {
    "name": "solc",
    "version": "0.7.5+commit.eb77ed08.Emscripten.clang"
  },
  "schemaVersion": "3.3.2",
  "updatedAt": "2020-12-03T04:32:10.534Z",
  "networkType": "ethereum",
  "devdoc": {
    "kind": "dev",
    "methods": {},
    "version": 1
  },
  "userdoc": {
    "kind": "user",
    "methods": {},
    "version": 1
  }
}