{
  "contractName": "Converge",
  "abi": [
    {
      "inputs": [],
      "stateMutability": "nonpayable",
      "type": "constructor"
    },
    {
      "anonymous": false,
      "inputs": [
        {
          "indexed": false,
          "internalType": "address",
          "name": "actor",
          "type": "address"
        },
        {
          "indexed": false,
          "internalType": "string",
          "name": "name",
          "type": "string"
        }
      ],
      "name": "LogDeleteGroup",
      "type": "event"
    },
    {
      "anonymous": false,
      "inputs": [
        {
          "indexed": false,
          "internalType": "address",
          "name": "actor",
          "type": "address"
        },
        {
          "indexed": false,
          "internalType": "string",
          "name": "name",
          "type": "string"
        }
      ],
      "name": "LogNewGroup",
      "type": "event"
    },
    {
      "anonymous": false,
      "inputs": [
        {
          "indexed": false,
          "internalType": "address",
          "name": "actor",
          "type": "address"
        },
        {
          "indexed": false,
          "internalType": "uint256",
          "name": "id",
          "type": "uint256"
        },
        {
          "indexed": false,
          "internalType": "string",
          "name": "title",
          "type": "string"
        }
      ],
      "name": "LogNewMeeting",
      "type": "event"
    },
    {
      "anonymous": false,
      "inputs": [
        {
          "indexed": false,
          "internalType": "address",
          "name": "actor",
          "type": "address"
        },
        {
          "indexed": false,
          "internalType": "string",
          "name": "name",
          "type": "string"
        }
      ],
      "name": "LogUpdateGroup",
      "type": "event"
    },
    {
      "anonymous": false,
      "inputs": [
        {
          "indexed": false,
          "internalType": "address",
          "name": "actor",
          "type": "address"
        },
        {
          "indexed": false,
          "internalType": "uint256",
          "name": "id",
          "type": "uint256"
        },
        {
          "indexed": false,
          "internalType": "string",
          "name": "title",
          "type": "string"
        }
      ],
      "name": "LogUpdateMeeting",
      "type": "event"
    },
    {
      "inputs": [
        {
          "internalType": "string",
          "name": "_name",
          "type": "string"
        },
        {
          "internalType": "string",
          "name": "_description",
          "type": "string"
        },
        {
          "internalType": "string",
          "name": "_location",
          "type": "string"
        }
      ],
      "name": "addGroup",
      "outputs": [],
      "stateMutability": "nonpayable",
      "type": "function"
    },
    {
      "inputs": [
        {
          "internalType": "string",
          "name": "_name",
          "type": "string"
        }
      ],
      "name": "getGroup",
      "outputs": [
        {
          "internalType": "string",
          "name": "",
          "type": "string"
        },
        {
          "internalType": "string",
          "name": "",
          "type": "string"
        },
        {
          "internalType": "string",
          "name": "",
          "type": "string"
        }
      ],
      "stateMutability": "view",
      "type": "function",
      "constant": true
    },
    {
      "inputs": [
        {
          "internalType": "string",
          "name": "_name",
          "type": "string"
        },
        {
          "internalType": "string",
          "name": "_description",
          "type": "string"
        },
        {
          "internalType": "string",
          "name": "_location",
          "type": "string"
        }
      ],
      "name": "updateGroup",
      "outputs": [],
      "stateMutability": "nonpayable",
      "type": "function"
    },
    {
      "inputs": [
        {
          "internalType": "string",
          "name": "_name",
          "type": "string"
        }
      ],
      "name": "deleteGroup",
      "outputs": [],
      "stateMutability": "nonpayable",
      "type": "function"
    },
    {
      "inputs": [],
      "name": "getGroups",
      "outputs": [
        {
          "components": [
            {
              "internalType": "string",
              "name": "name",
              "type": "string"
            },
            {
              "internalType": "string",
              "name": "description",
              "type": "string"
            },
            {
              "internalType": "string",
              "name": "location",
              "type": "string"
            },
            {
              "internalType": "uint256",
              "name": "listIndex",
              "type": "uint256"
            },
            {
              "internalType": "bool",
              "name": "isValid",
              "type": "bool"
            }
          ],
          "internalType": "struct Converge.Group[]",
          "name": "",
          "type": "tuple[]"
        }
      ],
      "stateMutability": "view",
      "type": "function",
      "constant": true
    },
    {
      "inputs": [
        {
          "internalType": "string",
          "name": "_title",
          "type": "string"
        },
        {
          "internalType": "string",
          "name": "_description",
          "type": "string"
        },
        {
          "internalType": "string",
          "name": "_location",
          "type": "string"
        },
        {
          "internalType": "uint256",
          "name": "_date",
          "type": "uint256"
        }
      ],
      "name": "addMeeting",
      "outputs": [],
      "stateMutability": "nonpayable",
      "type": "function"
    },
    {
      "inputs": [
        {
          "internalType": "uint256",
          "name": "_id",
          "type": "uint256"
        }
      ],
      "name": "getMeeting",
      "outputs": [
        {
          "internalType": "uint256",
          "name": "",
          "type": "uint256"
        },
        {
          "internalType": "string",
          "name": "",
          "type": "string"
        },
        {
          "internalType": "string",
          "name": "",
          "type": "string"
        },
        {
          "internalType": "string",
          "name": "",
          "type": "string"
        },
        {
          "internalType": "uint256",
          "name": "",
          "type": "uint256"
        }
      ],
      "stateMutability": "view",
      "type": "function",
      "constant": true
    },
    {
      "inputs": [
        {
          "internalType": "uint256",
          "name": "_id",
          "type": "uint256"
        },
        {
          "internalType": "string",
          "name": "_title",
          "type": "string"
        },
        {
          "internalType": "string",
          "name": "_description",
          "type": "string"
        },
        {
          "internalType": "string",
          "name": "_location",
          "type": "string"
        },
        {
          "internalType": "uint256",
          "name": "_date",
          "type": "uint256"
        }
      ],
      "name": "updateMeeting",
      "outputs": [],
      "stateMutability": "nonpayable",
      "type": "function"
    },
    {
      "inputs": [
        {
          "internalType": "uint256",
          "name": "_id",
          "type": "uint256"
        }
      ],
      "name": "deleteMeeting",
      "outputs": [],
      "stateMutability": "nonpayable",
      "type": "function"
    },
    {
      "inputs": [],
      "name": "getMeetings",
      "outputs": [
        {
          "components": [
            {
              "internalType": "uint256",
              "name": "id",
              "type": "uint256"
            },
            {
              "internalType": "string",
              "name": "title",
              "type": "string"
            },
            {
              "internalType": "string",
              "name": "description",
              "type": "string"
            },
            {
              "internalType": "string",
              "name": "location",
              "type": "string"
            },
            {
              "internalType": "uint256",
              "name": "date",
              "type": "uint256"
            }
          ],
          "internalType": "struct Converge.Meeting[]",
          "name": "",
          "type": "tuple[]"
        }
      ],
      "stateMutability": "view",
      "type": "function",
      "constant": true
    }
  ],
  "bytecode": "0x608060405234801561001057600080fd5b50336000806101000a81548173ffffffffffffffffffffffffffffffffffffffff021916908373ffffffffffffffffffffffffffffffffffffffff1602179055506122d7806100606000396000f3fe608060405234801561001057600080fd5b506004361061009e5760003560e01c80634e70f4bd116100665780634e70f4bd1461014957806390983dc614610165578063abef281e14610181578063c72b5176146101b3578063f8aca1ca146101d15761009e565b80630477575a146100a3578063162a5af5146100c15780632307271b146100dd5780632d703f88146100f95780632e8b92a91461012d575b600080fd5b6100ab6101ed565b6040516100b89190611f9e565b60405180910390f35b6100db60048036038101906100d691906118e1565b610497565b005b6100f760048036038101906100f2919061198c565b610625565b005b610113600480360381019061010e919061198c565b61070c565b60405161012495949392919061202c565b60405180910390f35b61014760048036038101906101429190611809565b61096c565b005b610163600480360381019061015e919061184a565b610be7565b005b61017f600480360381019061017a919061184a565b610dc0565b005b61019b60048036038101906101969190611809565b610f19565b6040516101aa93929190611fc0565b60405180910390f35b6101bb61119a565b6040516101c89190611f7c565b60405180910390f35b6101eb60048036038101906101e691906119b5565b61147c565b005b60608060035467ffffffffffffffff8111801561020957600080fd5b5060405190808252806020026020018201604052801561024357816020015b6102306115b8565b8152602001906001900390816102285790505b50905060005b60035481101561048f57600460008281526020019081526020016000206040518060a001604052908160008201548152602001600182018054600181600116156101000203166002900480601f0160208091040260200160405190810160405280929190818152602001828054600181600116156101000203166002900480156103145780601f106102e957610100808354040283529160200191610314565b820191906000526020600020905b8154815290600101906020018083116102f757829003601f168201915b50505050508152602001600282018054600181600116156101000203166002900480601f0160208091040260200160405190810160405280929190818152602001828054600181600116156101000203166002900480156103b65780601f1061038b576101008083540402835291602001916103b6565b820191906000526020600020905b81548152906001019060200180831161039957829003601f168201915b50505050508152602001600382018054600181600116156101000203166002900480601f0160208091040260200160405190810160405280929190818152602001828054600181600116156101000203166002900480156104585780601f1061042d57610100808354040283529160200191610458565b820191906000526020600020905b81548152906001019060200180831161043b57829003601f168201915b5050505050815260200160048201548152505082828151811061047757fe5b60200260200101819052508080600101915050610249565b508091505090565b60008054906101000a900473ffffffffffffffffffffffffffffffffffffffff1673ffffffffffffffffffffffffffffffffffffffff163373ffffffffffffffffffffffffffffffffffffffff1614610525576040517f08c379a000000000000000000000000000000000000000000000000000000000815260040161051c9061200c565b60405180910390fd5b7f0931797a1687fa8bf2a592dd80cdb6ff78621e8e9f14407c478a0dc0b760eb67336003548660405161055a93929190611f3e565b60405180910390a16040518060a001604052806003548152602001858152602001848152602001838152602001828152506004600060035481526020019081526020016000206000820151816000015560208201518160010190805190602001906105c69291906115e7565b5060408201518160020190805190602001906105e39291906115e7565b5060608201518160030190805190602001906106009291906115e7565b5060808201518160040155905050600160036000828254019250508190555050505050565b60008054906101000a900473ffffffffffffffffffffffffffffffffffffffff1673ffffffffffffffffffffffffffffffffffffffff163373ffffffffffffffffffffffffffffffffffffffff16146106b3576040517f08c379a00000000000000000000000000000000000000000000000000000000081526004016106aa9061200c565b60405180910390fd5b600460008281526020019081526020016000206000808201600090556001820160006106df9190611675565b6002820160006106ef9190611675565b6003820160006106ff9190611675565b6004820160009055505050565b60006060806060600060046000878152602001908152602001600020600001546004600088815260200190815260200160002060010160046000898152602001908152602001600020600201600460008a8152602001908152602001600020600301600460008b815260200190815260200160002060040154838054600181600116156101000203166002900480601f01602080910402602001604051908101604052809291908181526020018280546001816001161561010002031660029004801561081a5780601f106107ef5761010080835404028352916020019161081a565b820191906000526020600020905b8154815290600101906020018083116107fd57829003601f168201915b50505050509350828054600181600116156101000203166002900480601f0160208091040260200160405190810160405280929190818152602001828054600181600116156101000203166002900480156108b65780601f1061088b576101008083540402835291602001916108b6565b820191906000526020600020905b81548152906001019060200180831161089957829003601f168201915b50505050509250818054600181600116156101000203166002900480601f0160208091040260200160405190810160405280929190818152602001828054600181600116156101000203166002900480156109525780601f1061092757610100808354040283529160200191610952565b820191906000526020600020905b81548152906001019060200180831161093557829003601f168201915b505050505091509450945094509450945091939590929450565b60008054906101000a900473ffffffffffffffffffffffffffffffffffffffff1673ffffffffffffffffffffffffffffffffffffffff163373ffffffffffffffffffffffffffffffffffffffff16146109fa576040517f08c379a00000000000000000000000000000000000000000000000000000000081526004016109f19061200c565b60405180910390fd5b600181604051610a0a9190611ec9565b908152602001604051809103902060040160009054906101000a900460ff16610a3257600080fd5b7f84f426df888a62516b65ba8e19c36ae6ab0098a46b1cc5589639cb9cd3b069a93382604051610a63929190611f0e565b60405180910390a16000600182604051610a7d9190611ec9565b908152602001604051809103902060040160006101000a81548160ff0219169083151502179055506000600182604051610ab79190611ec9565b90815260200160405180910390206003015490506000600260016002805490500381548110610ae257fe5b9060005260206000200190508060028381548110610afc57fe5b906000526020600020019080546001816001161561010002031660029004610b259291906116bd565b5081600182604051610b379190611ef7565b9081526020016040518091039020600301819055506002805480610b5757fe5b600190038181906000526020600020016000610b739190611675565b9055600183604051610b859190611ec9565b908152602001604051809103902060008082016000610ba49190611675565b600182016000610bb49190611675565b600282016000610bc49190611675565b60038201600090556004820160006101000a81549060ff02191690555050505050565b60008054906101000a900473ffffffffffffffffffffffffffffffffffffffff1673ffffffffffffffffffffffffffffffffffffffff163373ffffffffffffffffffffffffffffffffffffffff1614610c75576040517f08c379a0000000000000000000000000000000000000000000000000000000008152600401610c6c9061200c565b60405180910390fd5b7f71820db7986a2d7203365298ce5c3d52ee7ab194e3934af38620a6a3c204f34d3384604051610ca6929190611f0e565b60405180910390a16040518060a00160405280848152602001838152602001828152602001600280549050815260200160011515815250600184604051610ced9190611ec9565b90815260200160405180910390206000820151816000019080519060200190610d179291906115e7565b506020820151816001019080519060200190610d349291906115e7565b506040820151816002019080519060200190610d519291906115e7565b506060820151816003015560808201518160040160006101000a81548160ff021916908315150217905550905050600283908060018154018082558091505060019003906000526020600020016000909190919091509080519060200190610dba9291906115e7565b50505050565b60008054906101000a900473ffffffffffffffffffffffffffffffffffffffff1673ffffffffffffffffffffffffffffffffffffffff163373ffffffffffffffffffffffffffffffffffffffff1614610e4e576040517f08c379a0000000000000000000000000000000000000000000000000000000008152600401610e459061200c565b60405180910390fd5b600183604051610e5e9190611ec9565b908152602001604051809103902060040160009054906101000a900460ff16610e8657600080fd5b7f543c720102401668e832abee9dcbe121b9a4c658ffd3082557759c64963ba6903384604051610eb7929190611f0e565b60405180910390a16000600184604051610ed19190611ec9565b9081526020016040518091039020905082816001019080519060200190610ef99291906115e7565b5081816002019080519060200190610f129291906115e7565b5050505050565b6060806060600184604051610f2e9190611ec9565b908152602001604051809103902060040160009054906101000a900460ff16610f5657600080fd5b600184604051610f669190611ec9565b9081526020016040518091039020600001600185604051610f879190611ec9565b9081526020016040518091039020600101600186604051610fa89190611ec9565b9081526020016040518091039020600201828054600181600116156101000203166002900480601f01602080910402602001604051908101604052809291908181526020018280546001816001161561010002031660029004801561104e5780601f106110235761010080835404028352916020019161104e565b820191906000526020600020905b81548152906001019060200180831161103157829003601f168201915b50505050509250818054600181600116156101000203166002900480601f0160208091040260200160405190810160405280929190818152602001828054600181600116156101000203166002900480156110ea5780601f106110bf576101008083540402835291602001916110ea565b820191906000526020600020905b8154815290600101906020018083116110cd57829003601f168201915b50505050509150808054600181600116156101000203166002900480601f0160208091040260200160405190810160405280929190818152602001828054600181600116156101000203166002900480156111865780601f1061115b57610100808354040283529160200191611186565b820191906000526020600020905b81548152906001019060200180831161116957829003601f168201915b505050505090509250925092509193909250565b60608060028054905067ffffffffffffffff811180156111b957600080fd5b506040519080825280602002602001820160405280156111f357816020015b6111e0611752565b8152602001906001900390816111d85790505b50905060005b6002805490508110156114745760016002828154811061121557fe5b9060005260206000200160405161122c9190611ee0565b90815260200160405180910390206040518060a0016040529081600082018054600181600116156101000203166002900480601f0160208091040260200160405190810160405280929190818152602001828054600181600116156101000203166002900480156112de5780601f106112b3576101008083540402835291602001916112de565b820191906000526020600020905b8154815290600101906020018083116112c157829003601f168201915b50505050508152602001600182018054600181600116156101000203166002900480601f0160208091040260200160405190810160405280929190818152602001828054600181600116156101000203166002900480156113805780601f1061135557610100808354040283529160200191611380565b820191906000526020600020905b81548152906001019060200180831161136357829003601f168201915b50505050508152602001600282018054600181600116156101000203166002900480601f0160208091040260200160405190810160405280929190818152602001828054600181600116156101000203166002900480156114225780601f106113f757610100808354040283529160200191611422565b820191906000526020600020905b81548152906001019060200180831161140557829003601f168201915b50505050508152602001600382015481526020016004820160009054906101000a900460ff16151515158152505082828151811061145c57fe5b602002602001018190525080806001019150506111f9565b508091505090565b60008054906101000a900473ffffffffffffffffffffffffffffffffffffffff1673ffffffffffffffffffffffffffffffffffffffff163373ffffffffffffffffffffffffffffffffffffffff161461150a576040517f08c379a00000000000000000000000000000000000000000000000000000000081526004016115019061200c565b60405180910390fd5b7f48f536302b507fadab0e7c179b69c6af29a12c5f1b1c5868f762f69cf60bdcb133868660405161153d93929190611f3e565b60405180910390a16000600460008781526020019081526020016000209050848160010190805190602001906115749291906115e7565b508381600201908051906020019061158d9291906115e7565b50828160030190805190602001906115a69291906115e7565b50818160040181905550505050505050565b6040518060a0016040528060008152602001606081526020016060815260200160608152602001600081525090565b828054600181600116156101000203166002900490600052602060002090601f01602090048101928261161d5760008555611664565b82601f1061163657805160ff1916838001178555611664565b82800160010185558215611664579182015b82811115611663578251825591602001919060010190611648565b5b5090506116719190611783565b5090565b50805460018160011615610100020316600290046000825580601f1061169b57506116ba565b601f0160209004906000526020600020908101906116b99190611783565b5b50565b828054600181600116156101000203166002900490600052602060002090601f0160209004810192826116f35760008555611741565b82601f106117045780548555611741565b8280016001018555821561174157600052602060002091601f016020900482015b82811115611740578254825591600101919060010190611725565b5b50905061174e9190611783565b5090565b6040518060a00160405280606081526020016060815260200160608152602001600081526020016000151581525090565b5b8082111561179c576000816000905550600101611784565b5090565b600082601f8301126117b157600080fd5b81356117c46117bf826120c5565b612094565b915080825260208301602083018583830111156117e057600080fd5b6117eb838284612235565b50505092915050565b6000813590506118038161228a565b92915050565b60006020828403121561181b57600080fd5b600082013567ffffffffffffffff81111561183557600080fd5b611841848285016117a0565b91505092915050565b60008060006060848603121561185f57600080fd5b600084013567ffffffffffffffff81111561187957600080fd5b611885868287016117a0565b935050602084013567ffffffffffffffff8111156118a257600080fd5b6118ae868287016117a0565b925050604084013567ffffffffffffffff8111156118cb57600080fd5b6118d7868287016117a0565b9150509250925092565b600080600080608085870312156118f757600080fd5b600085013567ffffffffffffffff81111561191157600080fd5b61191d878288016117a0565b945050602085013567ffffffffffffffff81111561193a57600080fd5b611946878288016117a0565b935050604085013567ffffffffffffffff81111561196357600080fd5b61196f878288016117a0565b9250506060611980878288016117f4565b91505092959194509250565b60006020828403121561199e57600080fd5b60006119ac848285016117f4565b91505092915050565b600080600080600060a086880312156119cd57600080fd5b60006119db888289016117f4565b955050602086013567ffffffffffffffff8111156119f857600080fd5b611a04888289016117a0565b945050604086013567ffffffffffffffff811115611a2157600080fd5b611a2d888289016117a0565b935050606086013567ffffffffffffffff811115611a4a57600080fd5b611a56888289016117a0565b9250506080611a67888289016117f4565b9150509295509295909350565b6000611a808383611da3565b905092915050565b6000611a948383611e27565b905092915050565b611aa5816121ff565b82525050565b6000611ab68261213f565b611ac0818561217a565b935083602082028501611ad2856120f5565b8060005b85811015611b0e5784840389528151611aef8582611a74565b9450611afa83612160565b925060208a01995050600181019050611ad6565b50829750879550505050505092915050565b6000611b2b8261214a565b611b35818561218b565b935083602082028501611b4785612105565b8060005b85811015611b835784840389528151611b648582611a88565b9450611b6f8361216d565b925060208a01995050600181019050611b4b565b50829750879550505050505092915050565b611b9e816121c9565b82525050565b6000611baf82612155565b611bb9818561219c565b9350611bc9818560208601612244565b611bd281612279565b840191505092915050565b6000611be882612155565b611bf281856121ad565b9350611c02818560208601612244565b611c0b81612279565b840191505092915050565b6000611c2182612155565b611c2b81856121be565b9350611c3b818560208601612244565b80840191505092915050565b600081546001811660008114611c645760018114611c8957611ccd565b607f6002830416611c7581876121be565b955060ff1983168652808601935050611ccd565b60028204611c9781876121be565b9550611ca28561212a565b60005b82811015611cc457815481890152600182019150602081019050611ca5565b82880195505050505b505092915050565b600081546001811660008114611cf25760018114611d1757611d5b565b607f6002830416611d0381876121be565b955060ff1983168652808601935050611d5b565b60028204611d2581876121be565b9550611d3085612115565b60005b82811015611d5257815481890152600182019150602081019050611d33565b82880195505050505b505092915050565b6000611d70600c836121ad565b91507f556e617574686f72697a656400000000000000000000000000000000000000006000830152602082019050919050565b600060a0830160008301518482036000860152611dc08282611ba4565b91505060208301518482036020860152611dda8282611ba4565b91505060408301518482036040860152611df48282611ba4565b9150506060830151611e096060860182611eab565b506080830151611e1c6080860182611b95565b508091505092915050565b600060a083016000830151611e3f6000860182611eab565b5060208301518482036020860152611e578282611ba4565b91505060408301518482036040860152611e718282611ba4565b91505060608301518482036060860152611e8b8282611ba4565b9150506080830151611ea06080860182611eab565b508091505092915050565b611eb4816121f5565b82525050565b611ec3816121f5565b82525050565b6000611ed58284611c16565b915081905092915050565b6000611eec8284611cd5565b915081905092915050565b6000611f038284611c47565b915081905092915050565b6000604082019050611f236000830185611a9c565b8181036020830152611f358184611bdd565b90509392505050565b6000606082019050611f536000830186611a9c565b611f606020830185611eba565b8181036040830152611f728184611bdd565b9050949350505050565b60006020820190508181036000830152611f968184611aab565b905092915050565b60006020820190508181036000830152611fb88184611b20565b905092915050565b60006060820190508181036000830152611fda8186611bdd565b90508181036020830152611fee8185611bdd565b905081810360408301526120028184611bdd565b9050949350505050565b6000602082019050818103600083015261202581611d63565b9050919050565b600060a0820190506120416000830188611eba565b81810360208301526120538187611bdd565b905081810360408301526120678186611bdd565b9050818103606083015261207b8185611bdd565b905061208a6080830184611eba565b9695505050505050565b6000604051905081810181811067ffffffffffffffff821117156120bb576120ba612277565b5b8060405250919050565b600067ffffffffffffffff8211156120e0576120df612277565b5b601f19601f8301169050602081019050919050565b6000819050602082019050919050565b6000819050602082019050919050565b60008190508160005260206000209050919050565b60008190508160005260206000209050919050565b600081519050919050565b600081519050919050565b600081519050919050565b6000602082019050919050565b6000602082019050919050565b600082825260208201905092915050565b600082825260208201905092915050565b600082825260208201905092915050565b600082825260208201905092915050565b600081905092915050565b60008115159050919050565b600073ffffffffffffffffffffffffffffffffffffffff82169050919050565b6000819050919050565b600061220a82612211565b9050919050565b600061221c82612223565b9050919050565b600061222e826121d5565b9050919050565b82818337600083830152505050565b60005b83811015612262578082015181840152602081019050612247565b83811115612271576000848401525b50505050565bfe5b6000601f19601f8301169050919050565b612293816121f5565b811461229e57600080fd5b5056fea26469706673582212202218c1b20a826f66966caf5985a62b496a26ee4369862312e2a0ca31c4b6999f64736f6c63430007050033",
  "immutableReferences": {},
  "source": "// SPDX-License-Identifier: MIT\npragma solidity 0.7.5;\npragma experimental ABIEncoderV2;\n\ncontract Converge {\n\n    address private owner;\n\n    mapping (string => Group) private groups;\n    string[] private groupList;\n\n    uint private meetingCount;\n    mapping (uint => Meeting) private meetings;\n\n    struct Group {\n        string name;\n        string description;\n        string location;\n        // uint meetingCount;\n        // mapping (uint => Meeting) public meetings;\n        uint listIndex;\n        bool isValid;\n    }\n\n    struct Meeting {\n        uint id;\n        string title;\n        string description;\n        string location;\n        uint date;\n    }\n\n    event LogNewGroup(address actor, string name);\n    event LogUpdateGroup(address actor, string name);\n    event LogDeleteGroup(address actor, string name);\n    event LogNewMeeting(address actor, uint id, string title);\n    event LogUpdateMeeting(address actor, uint id, string title);\n\n    modifier onlyOwner {\n        require(msg.sender == owner, \"Unauthorized\");\n        _;\n    }\n\n    constructor() {\n        owner = msg.sender;\n    }\n\n    // function addGroup(string memory _name, string memory _description, string memory _location) public onlyOwner {\n    //     uint id = groupCount;\n    //     groupCount++;\n    //     emit LogNewGroup(msg.sender, id, _name);\n    //     groups[id] = Group({id: id, name: _name, description: _description, location: _location});\n    // }\n\n    function addGroup(string memory _name, string memory _description, string memory _location) public onlyOwner {\n        //TODO is this even needed?\n        // if(isEntity(entityAddress)) throw;\n        emit LogNewGroup(msg.sender, _name);\n        groups[_name] = Group({name: _name, description: _description, location: _location, listIndex: groupList.length, isValid: true});\n        groupList.push(_name);\n    }\n\n    function getGroup(string memory _name) external view returns(string memory, string memory, string memory) {\n        require(groups[_name].isValid);\n        return (groups[_name].name, groups[_name].description, groups[_name].location);\n    }\n\n    function updateGroup(string memory _name, string memory _description, string memory _location) public onlyOwner {\n        require(groups[_name].isValid);\n        emit LogUpdateGroup(msg.sender, _name);\n        Group storage group = groups[_name];\n        group.description = _description;\n        group.location = _location;\n    }\n\n    // function deleteGroup(uint _id) public onlyOwner {\n    //     delete groups[_id];\n    // }\n\n    function deleteGroup(string memory _name) public onlyOwner {\n        require(groups[_name].isValid);\n        emit LogDeleteGroup(msg.sender, _name);\n        //TODO how to make it so group is no longer valid after deletion? Should acheive it without this line\n        groups[_name].isValid = false;\n        uint indexToDelete = groups[_name].listIndex;\n        string storage keyToMove = groupList[groupList.length - 1];\n        groupList[indexToDelete] = keyToMove;\n        groups[keyToMove].listIndex = indexToDelete;\n        groupList.pop();\n        delete groups[_name];\n        // TODO is the below needed to freeup storage?\n        // delete groups[_id];\n    }\n\n    function getGroups() external view returns (Group[] memory){\n        Group[] memory groupArray = new Group[](groupList.length);\n        for (uint i = 0; i < groupList.length; i++) {\n            groupArray[i] = groups[groupList[i]];\n        }\n        return groupArray;\n    }\n\n    function addMeeting(string memory _title, string memory _description, string memory _location, uint _date) public onlyOwner {\n        emit LogNewMeeting(msg.sender, meetingCount, _title);\n        meetings[meetingCount] = Meeting({id: meetingCount, title: _title, description: _description, location: _location, date: _date});\n        meetingCount += 1;\n    }\n\n    function getMeeting(uint _id) external view returns(uint, string memory, string memory, string memory, uint) {\n        return (meetings[_id].id, meetings[_id].title, meetings[_id].description, meetings[_id].location, meetings[_id].date);\n    }\n\n    function updateMeeting(uint _id, string memory _title, string memory _description, string memory _location, uint _date) public onlyOwner {\n        emit LogUpdateMeeting(msg.sender, _id, _title);\n        Meeting storage meeting = meetings[_id];\n        meeting.title = _title;\n        meeting.description = _description;\n        meeting.location = _location;\n        meeting.date = _date;\n    }\n\n    function deleteMeeting(uint _id) public onlyOwner {\n        delete meetings[_id];\n    }\n\n    function getMeetings() external view returns (Meeting[] memory){\n        Meeting[] memory meetingArray = new Meeting[](meetingCount);\n        for (uint i = 0; i < meetingCount; i++) {\n            meetingArray[i] = meetings[i];\n        }\n        return meetingArray;\n    }\n}",
  "sourcePath": "/home/glisch/Development/Converge/contracts/Converge.sol",
  "compiler": {
    "name": "solc",
    "version": "0.7.5+commit.eb77ed08.Emscripten.clang"
  },
  "schemaVersion": "3.3.2",
  "updatedAt": "2020-11-26T08:31:34.446Z",
  "networkType": "ethereum",
  "devdoc": {
    "kind": "dev",
    "methods": {},
    "version": 1
  },
  "userdoc": {
    "kind": "user",
    "methods": {},
    "version": 1
  }
}