{
  "contractName": "Converge",
  "abi": [
    {
      "inputs": [],
      "stateMutability": "nonpayable",
      "type": "constructor"
    },
    {
      "anonymous": false,
      "inputs": [
        {
          "indexed": false,
          "internalType": "address",
          "name": "actor",
          "type": "address"
        },
        {
          "indexed": false,
          "internalType": "string",
          "name": "name",
          "type": "string"
        }
      ],
      "name": "LogDeleteGroup",
      "type": "event"
    },
    {
      "anonymous": false,
      "inputs": [
        {
          "indexed": false,
          "internalType": "address",
          "name": "actor",
          "type": "address"
        },
        {
          "indexed": false,
          "internalType": "string",
          "name": "group",
          "type": "string"
        },
        {
          "indexed": false,
          "internalType": "uint256",
          "name": "id",
          "type": "uint256"
        }
      ],
      "name": "LogDeleteMeeting",
      "type": "event"
    },
    {
      "anonymous": false,
      "inputs": [
        {
          "indexed": false,
          "internalType": "address",
          "name": "actor",
          "type": "address"
        },
        {
          "indexed": false,
          "internalType": "string",
          "name": "name",
          "type": "string"
        }
      ],
      "name": "LogNewGroup",
      "type": "event"
    },
    {
      "anonymous": false,
      "inputs": [
        {
          "indexed": false,
          "internalType": "address",
          "name": "actor",
          "type": "address"
        },
        {
          "indexed": false,
          "internalType": "string",
          "name": "group",
          "type": "string"
        },
        {
          "indexed": false,
          "internalType": "uint256",
          "name": "id",
          "type": "uint256"
        }
      ],
      "name": "LogNewMeeting",
      "type": "event"
    },
    {
      "anonymous": false,
      "inputs": [
        {
          "indexed": false,
          "internalType": "address",
          "name": "actor",
          "type": "address"
        },
        {
          "indexed": false,
          "internalType": "string",
          "name": "name",
          "type": "string"
        }
      ],
      "name": "LogUpdateGroup",
      "type": "event"
    },
    {
      "anonymous": false,
      "inputs": [
        {
          "indexed": false,
          "internalType": "address",
          "name": "actor",
          "type": "address"
        },
        {
          "indexed": false,
          "internalType": "string",
          "name": "group",
          "type": "string"
        },
        {
          "indexed": false,
          "internalType": "uint256",
          "name": "id",
          "type": "uint256"
        }
      ],
      "name": "LogUpdateMeeting",
      "type": "event"
    },
    {
      "inputs": [],
      "name": "meetingCount",
      "outputs": [
        {
          "internalType": "uint256",
          "name": "",
          "type": "uint256"
        }
      ],
      "stateMutability": "view",
      "type": "function",
      "constant": true
    },
    {
      "inputs": [],
      "name": "getGroupList",
      "outputs": [
        {
          "internalType": "string[]",
          "name": "",
          "type": "string[]"
        }
      ],
      "stateMutability": "view",
      "type": "function",
      "constant": true
    },
    {
      "inputs": [
        {
          "internalType": "string",
          "name": "_groupName",
          "type": "string"
        }
      ],
      "name": "getGroup",
      "outputs": [
        {
          "internalType": "string",
          "name": "",
          "type": "string"
        },
        {
          "internalType": "string",
          "name": "",
          "type": "string"
        },
        {
          "internalType": "string",
          "name": "",
          "type": "string"
        }
      ],
      "stateMutability": "view",
      "type": "function",
      "constant": true
    },
    {
      "inputs": [
        {
          "internalType": "string",
          "name": "_groupName",
          "type": "string"
        }
      ],
      "name": "getGroupMeetingCount",
      "outputs": [
        {
          "internalType": "uint256",
          "name": "",
          "type": "uint256"
        }
      ],
      "stateMutability": "view",
      "type": "function",
      "constant": true
    },
    {
      "inputs": [
        {
          "internalType": "string",
          "name": "_groupName",
          "type": "string"
        },
        {
          "internalType": "uint256",
          "name": "index",
          "type": "uint256"
        }
      ],
      "name": "getGroupMeetingAtIndex",
      "outputs": [
        {
          "internalType": "uint256",
          "name": "",
          "type": "uint256"
        }
      ],
      "stateMutability": "view",
      "type": "function",
      "constant": true
    },
    {
      "inputs": [
        {
          "internalType": "uint256",
          "name": "_meetingId",
          "type": "uint256"
        }
      ],
      "name": "getMeeting",
      "outputs": [
        {
          "internalType": "uint256",
          "name": "",
          "type": "uint256"
        },
        {
          "internalType": "string",
          "name": "",
          "type": "string"
        },
        {
          "internalType": "string",
          "name": "",
          "type": "string"
        },
        {
          "internalType": "string",
          "name": "",
          "type": "string"
        },
        {
          "internalType": "uint256",
          "name": "",
          "type": "uint256"
        }
      ],
      "stateMutability": "view",
      "type": "function",
      "constant": true
    },
    {
      "inputs": [
        {
          "internalType": "string",
          "name": "_groupName",
          "type": "string"
        },
        {
          "internalType": "string",
          "name": "_description",
          "type": "string"
        },
        {
          "internalType": "string",
          "name": "_location",
          "type": "string"
        }
      ],
      "name": "addGroup",
      "outputs": [],
      "stateMutability": "nonpayable",
      "type": "function"
    },
    {
      "inputs": [
        {
          "internalType": "string",
          "name": "_groupName",
          "type": "string"
        },
        {
          "internalType": "string",
          "name": "_description",
          "type": "string"
        },
        {
          "internalType": "string",
          "name": "_location",
          "type": "string"
        }
      ],
      "name": "updateGroup",
      "outputs": [],
      "stateMutability": "nonpayable",
      "type": "function"
    },
    {
      "inputs": [
        {
          "internalType": "string",
          "name": "_name",
          "type": "string"
        }
      ],
      "name": "deleteGroup",
      "outputs": [],
      "stateMutability": "nonpayable",
      "type": "function"
    },
    {
      "inputs": [
        {
          "internalType": "string",
          "name": "_groupName",
          "type": "string"
        },
        {
          "internalType": "string",
          "name": "_title",
          "type": "string"
        },
        {
          "internalType": "string",
          "name": "_description",
          "type": "string"
        },
        {
          "internalType": "string",
          "name": "_location",
          "type": "string"
        },
        {
          "internalType": "uint256",
          "name": "_date",
          "type": "uint256"
        }
      ],
      "name": "addMeeting",
      "outputs": [],
      "stateMutability": "nonpayable",
      "type": "function"
    },
    {
      "inputs": [
        {
          "internalType": "uint256",
          "name": "_meetingId",
          "type": "uint256"
        },
        {
          "internalType": "string",
          "name": "_title",
          "type": "string"
        },
        {
          "internalType": "string",
          "name": "_description",
          "type": "string"
        },
        {
          "internalType": "string",
          "name": "_location",
          "type": "string"
        },
        {
          "internalType": "uint256",
          "name": "_date",
          "type": "uint256"
        }
      ],
      "name": "updateMeeting",
      "outputs": [],
      "stateMutability": "nonpayable",
      "type": "function"
    },
    {
      "inputs": [
        {
          "internalType": "uint256",
          "name": "_meetingId",
          "type": "uint256"
        }
      ],
      "name": "deleteMeeting",
      "outputs": [],
      "stateMutability": "nonpayable",
      "type": "function"
    }
  ],
  "bytecode": "0x608060405234801561001057600080fd5b50336000806101000a81548173ffffffffffffffffffffffffffffffffffffffff021916908373ffffffffffffffffffffffffffffffffffffffff1602179055506126dc806100606000396000f3fe608060405234801561001057600080fd5b50600436106100b45760003560e01c806390983dc61161007157806390983dc61461018f578063969aa282146101ab578063abef281e146101c9578063b17ea4e0146101fb578063dcd717ed14610217578063f8aca1ca14610247576100b4565b80631d8a7ef8146100b95780632307271b146100e957806328dde5f9146101055780632d703f88146101235780632e8b92a9146101575780634e70f4bd14610173575b600080fd5b6100d360048036038101906100ce9190611be1565b610263565b6040516100e0919061245b565b60405180910390f35b61010360048036038101906100fe9190611de4565b6102ff565b005b61010d61077a565b60405161011a919061234d565b60405180910390f35b61013d60048036038101906101389190611de4565b610863565b60405161014e959493929190612476565b60405180910390f35b610171600480360381019061016c9190611be1565b610b26565b005b61018d60048036038101906101889190611c22565b610e12565b005b6101a960048036038101906101a49190611c22565b611022565b005b6101b36111c8565b6040516101c0919061245b565b60405180910390f35b6101e360048036038101906101de9190611be1565b6111ce565b6040516101f29392919061236f565b60405180910390f35b61021560048036038101906102109190611cb9565b611485565b005b610231600480360381019061022c9190611d90565b61177f565b60405161023e919061245b565b60405180910390f35b610261600480360381019061025c9190611e0d565b61182e565b005b60006002826040516102759190612273565b908152602001604051809103902060060160009054906101000a900460ff166102d3576040517f08c379a00000000000000000000000000000000000000000000000000000000081526004016102ca9061243b565b60405180910390fd5b6002826040516102e39190612273565b9081526020016040518091039020600301805490509050919050565b60008054906101000a900473ffffffffffffffffffffffffffffffffffffffff1673ffffffffffffffffffffffffffffffffffffffff163373ffffffffffffffffffffffffffffffffffffffff161461038d576040517f08c379a0000000000000000000000000000000000000000000000000000000008152600401610384906123db565b60405180910390fd5b6005600082815260200190815260200160002060070160009054906101000a900460ff166103f0576040517f08c379a00000000000000000000000000000000000000000000000000000000081526004016103e79061241b565b60405180910390fd5b6060600560008381526020019081526020016000206005018054600181600116156101000203166002900480601f01602080910402602001604051908101604052809291908181526020018280546001816001161561010002031660029004801561049c5780601f106104715761010080835404028352916020019161049c565b820191906000526020600020905b81548152906001019060200180831161047f57829003601f168201915b505050505090507f573e6b9420c944bbc9440143c9b533171798a701d15e61cf1757233f0395d6a43382846040516104d6939291906122d1565b60405180910390a1600060056000848152602001908152602001600020600601549050600060046001600480549050038154811061051057fe5b90600052602060002001549050806004838154811061052b57fe5b9060005260206000200181905550816005600083815260200190815260200160002060060181905550600480548061055f57fe5b60019003818190600052602060002001600090559055600560008581526020019081526020016000206000808201600090556001820160006105a191906119cf565b6002820160006105b191906119cf565b6003820160006105c191906119cf565b60048201600090556005820160006105d991906119cf565b60068201600090556007820160006101000a81549060ff021916905550506002836040516106079190612273565b9081526020016040518091039020600401600085815260200190815260200160002054915060028360405161063c9190612273565b9081526020016040518091039020600301600160028560405161065f9190612273565b908152602001604051809103902060030180549050038154811061067f57fe5b906000526020600020015490508060028460405161069d9190612273565b908152602001604051809103902060030183815481106106b957fe5b9060005260206000200181905550816002846040516106d89190612273565b908152602001604051809103902060040160008381526020019081526020016000208190555060028360405161070e9190612273565b908152602001604051809103902060030180548061072857fe5b6001900381819060005260206000200160009055905560028360405161074e9190612273565b908152602001604051809103902060040160008581526020019081526020016000206000905550505050565b60606001805480602002602001604051908101604052809291908181526020016000905b8282101561085a578382906000526020600020018054600181600116156101000203166002900480601f0160208091040260200160405190810160405280929190818152602001828054600181600116156101000203166002900480156108465780601f1061081b57610100808354040283529160200191610846565b820191906000526020600020905b81548152906001019060200180831161082957829003601f168201915b50505050508152602001906001019061079e565b50505050905090565b6000606080606060006005600087815260200190815260200160002060070160009054906101000a900460ff166108cf576040517f08c379a00000000000000000000000000000000000000000000000000000000081526004016108c69061241b565b60405180910390fd5b60056000878152602001908152602001600020600001546005600088815260200190815260200160002060010160056000898152602001908152602001600020600201600560008a8152602001908152602001600020600301600560008b815260200190815260200160002060040154838054600181600116156101000203166002900480601f0160208091040260200160405190810160405280929190818152602001828054600181600116156101000203166002900480156109d45780601f106109a9576101008083540402835291602001916109d4565b820191906000526020600020905b8154815290600101906020018083116109b757829003601f168201915b50505050509350828054600181600116156101000203166002900480601f016020809104026020016040519081016040528092919081815260200182805460018160011615610100020316600290048015610a705780601f10610a4557610100808354040283529160200191610a70565b820191906000526020600020905b815481529060010190602001808311610a5357829003601f168201915b50505050509250818054600181600116156101000203166002900480601f016020809104026020016040519081016040528092919081815260200182805460018160011615610100020316600290048015610b0c5780601f10610ae157610100808354040283529160200191610b0c565b820191906000526020600020905b815481529060010190602001808311610aef57829003601f168201915b505050505091509450945094509450945091939590929450565b60008054906101000a900473ffffffffffffffffffffffffffffffffffffffff1673ffffffffffffffffffffffffffffffffffffffff163373ffffffffffffffffffffffffffffffffffffffff1614610bb4576040517f08c379a0000000000000000000000000000000000000000000000000000000008152600401610bab906123db565b60405180910390fd5b600281604051610bc49190612273565b908152602001604051809103902060060160009054906101000a900460ff16610c22576040517f08c379a0000000000000000000000000000000000000000000000000000000008152600401610c199061243b565b60405180910390fd5b6000600282604051610c349190612273565b90815260200160405180910390206003018054905014610c89576040517f08c379a0000000000000000000000000000000000000000000000000000000008152600401610c80906123bb565b60405180910390fd5b7f84f426df888a62516b65ba8e19c36ae6ab0098a46b1cc5589639cb9cd3b069a93382604051610cba9291906122a1565b60405180910390a16000600282604051610cd49190612273565b9081526020016040518091039020600501549050600060018080805490500381548110610cfd57fe5b9060005260206000200190508060018381548110610d1757fe5b906000526020600020019080546001816001161561010002031660029004610d40929190611a17565b5081600282604051610d52919061228a565b9081526020016040518091039020600501819055506001805480610d7257fe5b600190038181906000526020600020016000610d8e91906119cf565b9055600283604051610da09190612273565b908152602001604051809103902060008082016000610dbf91906119cf565b600182016000610dcf91906119cf565b600282016000610ddf91906119cf565b600382016000610def9190611aac565b60058201600090556006820160006101000a81549060ff02191690555050505050565b60008054906101000a900473ffffffffffffffffffffffffffffffffffffffff1673ffffffffffffffffffffffffffffffffffffffff163373ffffffffffffffffffffffffffffffffffffffff1614610ea0576040517f08c379a0000000000000000000000000000000000000000000000000000000008152600401610e97906123db565b60405180910390fd5b600283604051610eb09190612273565b908152602001604051809103902060060160009054906101000a900460ff1615610f0f576040517f08c379a0000000000000000000000000000000000000000000000000000000008152600401610f06906123fb565b60405180910390fd5b7f71820db7986a2d7203365298ce5c3d52ee7ab194e3934af38620a6a3c204f34d3384604051610f409291906122a1565b60405180910390a16000600284604051610f5a9190612273565b9081526020016040518091039020905083816000019080519060200190610f82929190611acd565b5082816001019080519060200190610f9b929190611acd565b5081816002019080519060200190610fb4929190611acd565b50600180549050816005018190555060018160060160006101000a81548160ff02191690831515021790555060018490806001815401808255809150506001900390600052602060002001600090919091909150908051906020019061101b929190611acd565b5050505050565b60008054906101000a900473ffffffffffffffffffffffffffffffffffffffff1673ffffffffffffffffffffffffffffffffffffffff163373ffffffffffffffffffffffffffffffffffffffff16146110b0576040517f08c379a00000000000000000000000000000000000000000000000000000000081526004016110a7906123db565b60405180910390fd5b6002836040516110c09190612273565b908152602001604051809103902060060160009054906101000a900460ff1661111e576040517f08c379a00000000000000000000000000000000000000000000000000000000081526004016111159061243b565b60405180910390fd5b7f543c720102401668e832abee9dcbe121b9a4c658ffd3082557759c64963ba690338460405161114f9291906122a1565b60405180910390a1816002846040516111689190612273565b9081526020016040518091039020600101908051906020019061118c929190611acd565b508060028460405161119e9190612273565b908152602001604051809103902060020190805190602001906111c2929190611acd565b50505050565b60035481565b60608060606002846040516111e39190612273565b908152602001604051809103902060060160009054906101000a900460ff16611241576040517f08c379a00000000000000000000000000000000000000000000000000000000081526004016112389061243b565b60405180910390fd5b6002846040516112519190612273565b90815260200160405180910390206000016002856040516112729190612273565b90815260200160405180910390206001016002866040516112939190612273565b9081526020016040518091039020600201828054600181600116156101000203166002900480601f0160208091040260200160405190810160405280929190818152602001828054600181600116156101000203166002900480156113395780601f1061130e57610100808354040283529160200191611339565b820191906000526020600020905b81548152906001019060200180831161131c57829003601f168201915b50505050509250818054600181600116156101000203166002900480601f0160208091040260200160405190810160405280929190818152602001828054600181600116156101000203166002900480156113d55780601f106113aa576101008083540402835291602001916113d5565b820191906000526020600020905b8154815290600101906020018083116113b857829003601f168201915b50505050509150808054600181600116156101000203166002900480601f0160208091040260200160405190810160405280929190818152602001828054600181600116156101000203166002900480156114715780601f1061144657610100808354040283529160200191611471565b820191906000526020600020905b81548152906001019060200180831161145457829003601f168201915b505050505090509250925092509193909250565b60008054906101000a900473ffffffffffffffffffffffffffffffffffffffff1673ffffffffffffffffffffffffffffffffffffffff163373ffffffffffffffffffffffffffffffffffffffff1614611513576040517f08c379a000000000000000000000000000000000000000000000000000000000815260040161150a906123db565b60405180910390fd5b6002856040516115239190612273565b908152602001604051809103902060060160009054906101000a900460ff16611581576040517f08c379a00000000000000000000000000000000000000000000000000000000081526004016115789061243b565b60405180910390fd5b60006002866040516115939190612273565b90815260200160405180910390209050600060035490506003600081548092919060010191905055507f61b0be62bc613163bc66ebf8f63755d77ff9a760c0a6b961bb58240d0a6b37d13388836040516115ef939291906122d1565b60405180910390a160405180610100016040528082815260200187815260200186815260200185815260200184815260200188815260200160048054905081526020016001151581525060056000838152602001908152602001600020600082015181600001556020820151816001019080519060200190611672929190611acd565b50604082015181600201908051906020019061168f929190611acd565b5060608201518160030190805190602001906116ac929190611acd565b506080820151816004015560a08201518160050190805190602001906116d3929190611acd565b5060c0820151816006015560e08201518160070160006101000a81548160ff02191690831515021790555090505060048190806001815401808255809150506001900390600052602060002001600090919091909150558160030180549050826004016000838152602001908152602001600020819055508160030181908060018154018082558091505060019003906000526020600020016000909190919091505550505050505050565b60006002836040516117919190612273565b908152602001604051809103902060060160009054906101000a900460ff166117ef576040517f08c379a00000000000000000000000000000000000000000000000000000000081526004016117e69061243b565b60405180910390fd5b6002836040516117ff9190612273565b9081526020016040518091039020600301828154811061181b57fe5b9060005260206000200154905092915050565b60008054906101000a900473ffffffffffffffffffffffffffffffffffffffff1673ffffffffffffffffffffffffffffffffffffffff163373ffffffffffffffffffffffffffffffffffffffff16146118bc576040517f08c379a00000000000000000000000000000000000000000000000000000000081526004016118b3906123db565b60405180910390fd5b6005600086815260200190815260200160002060070160009054906101000a900460ff1661191f576040517f08c379a00000000000000000000000000000000000000000000000000000000081526004016119169061241b565b60405180910390fd5b60006005600087815260200190815260200160002090507e7f17908bb8820d691da4c75c978ee15bb279bba2ffd2900069a100589c32c933826005018860405161196b9392919061230f565b60405180910390a18481600101908051906020019061198b929190611acd565b50838160020190805190602001906119a4929190611acd565b50828160030190805190602001906119bd929190611acd565b50818160040181905550505050505050565b50805460018160011615610100020316600290046000825580601f106119f55750611a14565b601f016020900490600052602060002090810190611a139190611b5b565b5b50565b828054600181600116156101000203166002900490600052602060002090601f016020900481019282611a4d5760008555611a9b565b82601f10611a5e5780548555611a9b565b82800160010185558215611a9b57600052602060002091601f016020900482015b82811115611a9a578254825591600101919060010190611a7f565b5b509050611aa89190611b5b565b5090565b5080546000825590600052602060002090810190611aca9190611b5b565b50565b828054600181600116156101000203166002900490600052602060002090601f016020900481019282611b035760008555611b4a565b82601f10611b1c57805160ff1916838001178555611b4a565b82800160010185558215611b4a579182015b82811115611b49578251825591602001919060010190611b2e565b5b509050611b579190611b5b565b5090565b5b80821115611b74576000816000905550600101611b5c565b5090565b600082601f830112611b8957600080fd5b8135611b9c611b978261250f565b6124de565b91508082526020830160208301858383011115611bb857600080fd5b611bc383828461263a565b50505092915050565b600081359050611bdb8161268f565b92915050565b600060208284031215611bf357600080fd5b600082013567ffffffffffffffff811115611c0d57600080fd5b611c1984828501611b78565b91505092915050565b600080600060608486031215611c3757600080fd5b600084013567ffffffffffffffff811115611c5157600080fd5b611c5d86828701611b78565b935050602084013567ffffffffffffffff811115611c7a57600080fd5b611c8686828701611b78565b925050604084013567ffffffffffffffff811115611ca357600080fd5b611caf86828701611b78565b9150509250925092565b600080600080600060a08688031215611cd157600080fd5b600086013567ffffffffffffffff811115611ceb57600080fd5b611cf788828901611b78565b955050602086013567ffffffffffffffff811115611d1457600080fd5b611d2088828901611b78565b945050604086013567ffffffffffffffff811115611d3d57600080fd5b611d4988828901611b78565b935050606086013567ffffffffffffffff811115611d6657600080fd5b611d7288828901611b78565b9250506080611d8388828901611bcc565b9150509295509295909350565b60008060408385031215611da357600080fd5b600083013567ffffffffffffffff811115611dbd57600080fd5b611dc985828601611b78565b9250506020611dda85828601611bcc565b9150509250929050565b600060208284031215611df657600080fd5b6000611e0484828501611bcc565b91505092915050565b600080600080600060a08688031215611e2557600080fd5b6000611e3388828901611bcc565b955050602086013567ffffffffffffffff811115611e5057600080fd5b611e5c88828901611b78565b945050604086013567ffffffffffffffff811115611e7957600080fd5b611e8588828901611b78565b935050606086013567ffffffffffffffff811115611ea257600080fd5b611eae88828901611b78565b9250506080611ebf88828901611bcc565b9150509295509295909350565b6000611ed88383611f64565b905092915050565b611ee981612604565b82525050565b6000611efa82612579565b611f04818561259c565b935083602082028501611f168561253f565b8060005b85811015611f525784840389528151611f338582611ecc565b9450611f3e8361258f565b925060208a01995050600181019050611f1a565b50829750879550505050505092915050565b6000611f6f82612584565b611f7981856125ad565b9350611f89818560208601612649565b611f928161267e565b840191505092915050565b6000611fa882612584565b611fb281856125be565b9350611fc2818560208601612649565b611fcb8161267e565b840191505092915050565b6000611fe182612584565b611feb81856125cf565b9350611ffb818560208601612649565b80840191505092915050565b60008154600181166000811461202457600181146120495761208d565b607f600283041661203581876125cf565b955060ff198316865280860193505061208d565b6002820461205781876125cf565b955061206285612564565b60005b8281101561208457815481890152600182019150602081019050612065565b82880195505050505b505092915050565b6000815460018116600081146120b257600181146120d85761211c565b607f60028304166120c381876125be565b955060ff19831686526020860193505061211c565b600282046120e681876125be565b95506120f18561254f565b60005b82811015612113578154818901526001820191506020810190506120f4565b80880195505050505b505092915050565b60006121316018836125be565b91507f43616e206e6f7420636f6e7461696e206d656574696e677300000000000000006000830152602082019050919050565b6000612171600c836125be565b91507f556e617574686f72697a656400000000000000000000000000000000000000006000830152602082019050919050565b60006121b16014836125be565b91507f47726f757020616c7265616479206578697374730000000000000000000000006000830152602082019050919050565b60006121f1600f836125be565b91507f496e76616c6964206d656574696e6700000000000000000000000000000000006000830152602082019050919050565b6000612231600d836125be565b91507f496e76616c69642067726f7570000000000000000000000000000000000000006000830152602082019050919050565b61226d816125fa565b82525050565b600061227f8284611fd6565b915081905092915050565b60006122968284612007565b915081905092915050565b60006040820190506122b66000830185611ee0565b81810360208301526122c88184611f9d565b90509392505050565b60006060820190506122e66000830186611ee0565b81810360208301526122f88185611f9d565b90506123076040830184612264565b949350505050565b60006060820190506123246000830186611ee0565b81810360208301526123368185612095565b90506123456040830184612264565b949350505050565b600060208201905081810360008301526123678184611eef565b905092915050565b600060608201905081810360008301526123898186611f9d565b9050818103602083015261239d8185611f9d565b905081810360408301526123b18184611f9d565b9050949350505050565b600060208201905081810360008301526123d481612124565b9050919050565b600060208201905081810360008301526123f481612164565b9050919050565b60006020820190508181036000830152612414816121a4565b9050919050565b60006020820190508181036000830152612434816121e4565b9050919050565b6000602082019050818103600083015261245481612224565b9050919050565b60006020820190506124706000830184612264565b92915050565b600060a08201905061248b6000830188612264565b818103602083015261249d8187611f9d565b905081810360408301526124b18186611f9d565b905081810360608301526124c58185611f9d565b90506124d46080830184612264565b9695505050505050565b6000604051905081810181811067ffffffffffffffff821117156125055761250461267c565b5b8060405250919050565b600067ffffffffffffffff82111561252a5761252961267c565b5b601f19601f8301169050602081019050919050565b6000819050602082019050919050565b60008190508160005260206000209050919050565b60008190508160005260206000209050919050565b600081519050919050565b600081519050919050565b6000602082019050919050565b600082825260208201905092915050565b600082825260208201905092915050565b600082825260208201905092915050565b600081905092915050565b600073ffffffffffffffffffffffffffffffffffffffff82169050919050565b6000819050919050565b600061260f82612616565b9050919050565b600061262182612628565b9050919050565b6000612633826125da565b9050919050565b82818337600083830152505050565b60005b8381101561266757808201518184015260208101905061264c565b83811115612676576000848401525b50505050565bfe5b6000601f19601f8301169050919050565b612698816125fa565b81146126a357600080fd5b5056fea26469706673582212209848d7fe60aa76378f214829eaaf2e680f55eac293610dad453f04929cb6049864736f6c63430007050033",
  "immutableReferences": {},
  "source": "// SPDX-License-Identifier: MIT\npragma solidity 0.7.5;\npragma experimental ABIEncoderV2;\n\ncontract Converge {\n\n    address private owner;\n\n    string[] private groupList;\n    mapping (string => Group) private groups;\n    uint public meetingCount;\n    uint[] private meetingList;\n    mapping (uint => Meeting) private meetings;\n\n    struct Meeting {\n        uint id;\n        string title;\n        string description;\n        string location;\n        uint date;\n        string groupKey;\n        uint meetingListPointer;\n        bool isValid;\n    }\n\n    struct Group {\n        string name;\n        string description;\n        string location;\n        uint[] meetingKeys;\n        mapping (uint => uint) meetingKeyPointers;\n        uint groupListPointer;\n        bool isValid;\n    }\n\n    event LogNewGroup(address actor, string name);\n    event LogUpdateGroup(address actor, string name);\n    event LogDeleteGroup(address actor, string name);\n    event LogNewMeeting(address actor, string group, uint id);\n    event LogUpdateMeeting(address actor, string group, uint id);\n    event LogDeleteMeeting(address actor, string group, uint id);\n\n    modifier onlyOwner {\n        require(msg.sender == owner, \"Unauthorized\");\n        _;\n    }\n\n    constructor() {\n        owner = msg.sender;\n    }\n\n    function getGroupList() external view returns(string[] memory) {\n        return groupList;\n    }\n\n    function getGroup(string memory _groupName) \n        external \n        view \n        returns(string memory, string memory, string memory) \n    {\n        require(groups[_groupName].isValid, \"Invalid group\");\n        return (\n            groups[_groupName].name, \n            groups[_groupName].description, \n            groups[_groupName].location\n        );\n    }\n\n    function getGroupMeetingCount(string memory _groupName) external view returns(uint) {\n        require(groups[_groupName].isValid, \"Invalid group\");\n        return groups[_groupName].meetingKeys.length;\n    }\n\n    function getGroupMeetingAtIndex(string memory _groupName, uint index) \n        external \n        view \n        returns(uint) \n    {\n        require(groups[_groupName].isValid, \"Invalid group\");\n        return groups[_groupName].meetingKeys[index];\n    }\n\n    function getMeeting(uint _meetingId) \n        external \n        view \n        returns(uint, string memory, string memory, string memory, uint) \n    {\n        require(meetings[_meetingId].isValid, \"Invalid meeting\");\n        return \n            (meetings[_meetingId].id, \n            meetings[_meetingId].title, \n            meetings[_meetingId].description, \n            meetings[_meetingId].location, \n            meetings[_meetingId].date\n        );\n    }\n\n    function addGroup(string memory _groupName, string memory _description, string memory _location) \n        public \n        onlyOwner \n    {\n        require(!groups[_groupName].isValid, \"Group already exists\");\n        emit LogNewGroup(msg.sender, _groupName);\n        Group storage group = groups[_groupName];\n        group.name = _groupName;\n        group.description = _description;\n        group.location = _location;\n        group.groupListPointer = groupList.length;\n        group.isValid = true;\n        groupList.push(_groupName);\n    }\n\n    function updateGroup(\n        string memory _groupName, \n        string memory _description, \n        string memory _location\n    ) \n        public \n        onlyOwner \n    {\n        require(groups[_groupName].isValid, \"Invalid group\");\n        emit LogUpdateGroup(msg.sender, _groupName);\n\n        groups[_groupName].description = _description;\n        groups[_groupName].location = _location;\n    }\n\n    function deleteGroup(string memory _name) public onlyOwner {\n        require(groups[_name].isValid, \"Invalid group\");\n        require(groups[_name].meetingKeys.length == 0, \"Can not contain meetings\");\n        emit LogDeleteGroup(msg.sender, _name);\n\n        uint indexToDelete = groups[_name].groupListPointer;\n        string storage keyToMove = groupList[groupList.length - 1];\n        groupList[indexToDelete] = keyToMove;\n        groups[keyToMove].groupListPointer = indexToDelete;\n        groupList.pop();\n        delete groups[_name];\n    }\n\n    function addMeeting(\n        string memory _groupName, \n        string memory _title, \n        string memory _description, \n        string memory _location, \n        uint _date\n    ) \n        public \n        onlyOwner \n    {\n        require(groups[_groupName].isValid, \"Invalid group\");\n        Group storage group = groups[_groupName];\n        uint meetingId = meetingCount;\n        meetingCount++;\n        emit LogNewMeeting(msg.sender, _groupName, meetingId);\n\n        meetings[meetingId] = Meeting({\n            id: meetingId, \n            title: _title, \n            description: _description, \n            location: _location, \n            date: _date, \n            groupKey: _groupName, \n            meetingListPointer: meetingList.length, \n            isValid: true\n        });\n        meetingList.push(meetingId);\n\n        group.meetingKeyPointers[meetingId] = group.meetingKeys.length;\n        group.meetingKeys.push(meetingId);\n    }\n\n    function updateMeeting(\n        uint _meetingId, \n        string memory _title, \n        string memory _description, \n        string memory _location, \n        uint _date\n    ) \n        public \n        onlyOwner \n    {\n        require(meetings[_meetingId].isValid, \"Invalid meeting\");\n        Meeting storage meeting = meetings[_meetingId];\n        emit LogUpdateMeeting(msg.sender, meeting.groupKey, _meetingId);\n\n        meeting.title = _title;\n        meeting.description = _description;\n        meeting.location = _location;\n        meeting.date = _date;\n    }\n\n    function deleteMeeting(uint _meetingId) public onlyOwner {\n        require(meetings[_meetingId].isValid, \"Invalid meeting\");\n        string memory groupId = meetings[_meetingId].groupKey;\n        emit LogDeleteMeeting(msg.sender, groupId, _meetingId);\n\n        uint indexToDelete = meetings[_meetingId].meetingListPointer;\n        uint keyToMove = meetingList[meetingList.length - 1];\n        meetingList[indexToDelete] = keyToMove;\n        meetings[keyToMove].meetingListPointer = indexToDelete;\n        meetingList.pop();\n        delete meetings[_meetingId];\n\n        indexToDelete = groups[groupId].meetingKeyPointers[_meetingId];\n        keyToMove = groups[groupId].meetingKeys[groups[groupId].meetingKeys.length - 1];\n        groups[groupId].meetingKeys[indexToDelete] = keyToMove;\n        groups[groupId].meetingKeyPointers[keyToMove] = indexToDelete;\n        groups[groupId].meetingKeys.pop();\n        delete groups[groupId].meetingKeyPointers[_meetingId];\n    }\n}",
  "sourcePath": "/home/glisch/Development/Converge/contracts/Converge.sol",
  "compiler": {
    "name": "solc",
    "version": "0.7.5+commit.eb77ed08.Emscripten.clang"
  },
  "schemaVersion": "3.3.2",
  "updatedAt": "2020-12-03T06:36:55.388Z",
  "networkType": "ethereum",
  "devdoc": {
    "kind": "dev",
    "methods": {},
    "version": 1
  },
  "userdoc": {
    "kind": "user",
    "methods": {},
    "version": 1
  }
}